{
  "_format": "hh-sol-artifact-1",
  "contractName": "DeTronEvent",
  "sourceName": "contracts/DeTronEvent.sol",
  "abi": [
    {
      "inputs": [
        {
          "internalType": "address",
          "name": "_gateway",
          "type": "address"
        },
        {
          "internalType": "string",
          "name": "_name",
          "type": "string"
        },
        {
          "internalType": "string",
          "name": "_symbol",
          "type": "string"
        }
      ],
      "stateMutability": "nonpayable",
      "type": "constructor"
    },
    {
      "anonymous": false,
      "inputs": [
        {
          "indexed": true,
          "internalType": "address",
          "name": "owner",
          "type": "address"
        },
        {
          "indexed": true,
          "internalType": "address",
          "name": "approved",
          "type": "address"
        },
        {
          "indexed": true,
          "internalType": "uint256",
          "name": "tokenId",
          "type": "uint256"
        }
      ],
      "name": "Approval",
      "type": "event"
    },
    {
      "anonymous": false,
      "inputs": [
        {
          "indexed": true,
          "internalType": "address",
          "name": "owner",
          "type": "address"
        },
        {
          "indexed": true,
          "internalType": "address",
          "name": "operator",
          "type": "address"
        },
        {
          "indexed": false,
          "internalType": "bool",
          "name": "approved",
          "type": "bool"
        }
      ],
      "name": "ApprovalForAll",
      "type": "event"
    },
    {
      "anonymous": false,
      "inputs": [
        {
          "indexed": true,
          "internalType": "address",
          "name": "from",
          "type": "address"
        },
        {
          "indexed": true,
          "internalType": "address",
          "name": "to",
          "type": "address"
        },
        {
          "indexed": true,
          "internalType": "uint256",
          "name": "tokenId",
          "type": "uint256"
        }
      ],
      "name": "Transfer",
      "type": "event"
    },
    {
      "inputs": [
        {
          "internalType": "address",
          "name": "to",
          "type": "address"
        },
        {
          "internalType": "uint256",
          "name": "tokenId",
          "type": "uint256"
        }
      ],
      "name": "approve",
      "outputs": [],
      "stateMutability": "nonpayable",
      "type": "function"
    },
    {
      "inputs": [
        {
          "internalType": "address",
          "name": "owner",
          "type": "address"
        }
      ],
      "name": "balanceOf",
      "outputs": [
        {
          "internalType": "uint256",
          "name": "",
          "type": "uint256"
        }
      ],
      "stateMutability": "view",
      "type": "function"
    },
    {
      "inputs": [
        {
          "internalType": "uint256",
          "name": "tokenId",
          "type": "uint256"
        }
      ],
      "name": "burn",
      "outputs": [],
      "stateMutability": "nonpayable",
      "type": "function"
    },
    {
      "inputs": [],
      "name": "gateway",
      "outputs": [
        {
          "internalType": "address",
          "name": "",
          "type": "address"
        }
      ],
      "stateMutability": "view",
      "type": "function"
    },
    {
      "inputs": [
        {
          "internalType": "uint256",
          "name": "tokenId",
          "type": "uint256"
        }
      ],
      "name": "getApproved",
      "outputs": [
        {
          "internalType": "address",
          "name": "",
          "type": "address"
        }
      ],
      "stateMutability": "view",
      "type": "function"
    },
    {
      "inputs": [
        {
          "internalType": "address",
          "name": "owner",
          "type": "address"
        },
        {
          "internalType": "address",
          "name": "operator",
          "type": "address"
        }
      ],
      "name": "isApprovedForAll",
      "outputs": [
        {
          "internalType": "bool",
          "name": "",
          "type": "bool"
        }
      ],
      "stateMutability": "view",
      "type": "function"
    },
    {
      "inputs": [
        {
          "internalType": "address",
          "name": "to",
          "type": "address"
        },
        {
          "internalType": "uint256",
          "name": "tokenId",
          "type": "uint256"
        }
      ],
      "name": "mint",
      "outputs": [],
      "stateMutability": "nonpayable",
      "type": "function"
    },
    {
      "inputs": [],
      "name": "name",
      "outputs": [
        {
          "internalType": "string",
          "name": "",
          "type": "string"
        }
      ],
      "stateMutability": "view",
      "type": "function"
    },
    {
      "inputs": [
        {
          "internalType": "uint256",
          "name": "tokenId",
          "type": "uint256"
        }
      ],
      "name": "ownerOf",
      "outputs": [
        {
          "internalType": "address",
          "name": "",
          "type": "address"
        }
      ],
      "stateMutability": "view",
      "type": "function"
    },
    {
      "inputs": [
        {
          "internalType": "address",
          "name": "to",
          "type": "address"
        },
        {
          "internalType": "bool",
          "name": "approved",
          "type": "bool"
        }
      ],
      "name": "setApprovalForAll",
      "outputs": [],
      "stateMutability": "nonpayable",
      "type": "function"
    },
    {
      "inputs": [],
      "name": "symbol",
      "outputs": [
        {
          "internalType": "string",
          "name": "",
          "type": "string"
        }
      ],
      "stateMutability": "view",
      "type": "function"
    },
    {
      "inputs": [
        {
          "internalType": "address",
          "name": "to",
          "type": "address"
        },
        {
          "internalType": "uint256",
          "name": "tokenId",
          "type": "uint256"
        }
      ],
      "name": "transfer",
      "outputs": [],
      "stateMutability": "nonpayable",
      "type": "function"
    },
    {
      "inputs": [
        {
          "internalType": "address",
          "name": "from",
          "type": "address"
        },
        {
          "internalType": "address",
          "name": "to",
          "type": "address"
        },
        {
          "internalType": "uint256",
          "name": "tokenId",
          "type": "uint256"
        }
      ],
      "name": "transferFrom",
      "outputs": [],
      "stateMutability": "nonpayable",
      "type": "function"
    }
  ],
  "bytecode": "0x60806040523480156200001157600080fd5b5060405162001992380380620019928339818101604052810190620000379190620001f8565b82600460006101000a81548173ffffffffffffffffffffffffffffffffffffffff021916908373ffffffffffffffffffffffffffffffffffffffff160217905550816005908051906020019062000090929190620000b3565b508060069080519060200190620000a9929190620000b3565b5050505062000464565b828054620000c1906200035b565b90600052602060002090601f016020900481019282620000e5576000855562000131565b82601f106200010057805160ff191683800117855562000131565b8280016001018555821562000131579182015b828111156200013057825182559160200191906001019062000113565b5b50905062000140919062000144565b5090565b5b808211156200015f57600081600090555060010162000145565b5090565b60006200017a6200017484620002bb565b62000292565b9050828152602081018484840111156200019957620001986200042a565b5b620001a684828562000325565b509392505050565b600081519050620001bf816200044a565b92915050565b600082601f830112620001dd57620001dc62000425565b5b8151620001ef84826020860162000163565b91505092915050565b60008060006060848603121562000214576200021362000434565b5b60006200022486828701620001ae565b935050602084015167ffffffffffffffff8111156200024857620002476200042f565b5b6200025686828701620001c5565b925050604084015167ffffffffffffffff8111156200027a57620002796200042f565b5b6200028886828701620001c5565b9150509250925092565b60006200029e620002b1565b9050620002ac828262000391565b919050565b6000604051905090565b600067ffffffffffffffff821115620002d957620002d8620003f6565b5b620002e48262000439565b9050602081019050919050565b6000620002fe8262000305565b9050919050565b600073ffffffffffffffffffffffffffffffffffffffff82169050919050565b60005b838110156200034557808201518184015260208101905062000328565b8381111562000355576000848401525b50505050565b600060028204905060018216806200037457607f821691505b602082108114156200038b576200038a620003c7565b5b50919050565b6200039c8262000439565b810181811067ffffffffffffffff82111715620003be57620003bd620003f6565b5b80604052505050565b7f4e487b7100000000000000000000000000000000000000000000000000000000600052602260045260246000fd5b7f4e487b7100000000000000000000000000000000000000000000000000000000600052604160045260246000fd5b600080fd5b600080fd5b600080fd5b600080fd5b6000601f19601f8301169050919050565b6200045581620002f1565b81146200046157600080fd5b50565b61151e80620004746000396000f3fe608060405234801561001057600080fd5b50600436106100cf5760003560e01c806342966c681161008c57806395d89b411161006657806395d89b4114610210578063a22cb4651461022e578063a9059cbb1461024a578063e985e9c514610266576100cf565b806342966c68146101945780636352211e146101b057806370a08231146101e0576100cf565b806306fdde03146100d4578063081812fc146100f2578063095ea7b314610122578063116191b61461013e57806323b872dd1461015c57806340c10f1914610178575b600080fd5b6100dc610296565b6040516100e9919061129f565b60405180910390f35b61010c600480360381019061010791906111d6565b610324565b6040516101199190611269565b60405180910390f35b61013c60048036038101906101379190611196565b610373565b005b6101466104b4565b6040516101539190611269565b60405180910390f35b61017660048036038101906101719190611103565b6104da565b005b610192600480360381019061018d9190611196565b6104fd565b005b6101ae60048036038101906101a991906111d6565b6106eb565b005b6101ca60048036038101906101c591906111d6565b6106f8565b6040516101d79190611269565b60405180910390f35b6101fa60048036038101906101f59190611096565b610773565b60405161020791906112c1565b60405180910390f35b6102186107f5565b604051610225919061129f565b60405180910390f35b61024860048036038101906102439190611156565b610883565b005b610264600480360381019061025f9190611196565b6109b9565b005b610280600480360381019061027b91906110c3565b6109c8565b60405161028d9190611284565b60405180910390f35b600580546102a3906113fd565b80601f01602080910402602001604051908101604052809291908181526020018280546102cf906113fd565b801561031c5780601f106102f15761010080835404028352916020019161031c565b820191906000526020600020905b8154815290600101906020018083116102ff57829003601f168201915b505050505081565b600061032f82610a5c565b61033857600080fd5b6001600083815260200190815260200160002060009054906101000a900473ffffffffffffffffffffffffffffffffffffffff169050919050565b600061037e826106f8565b90508073ffffffffffffffffffffffffffffffffffffffff168373ffffffffffffffffffffffffffffffffffffffff1614156103b957600080fd5b8073ffffffffffffffffffffffffffffffffffffffff163373ffffffffffffffffffffffffffffffffffffffff1614806103f957506103f881336109c8565b5b61040257600080fd5b826001600084815260200190815260200160002060006101000a81548173ffffffffffffffffffffffffffffffffffffffff021916908373ffffffffffffffffffffffffffffffffffffffff160217905550818373ffffffffffffffffffffffffffffffffffffffff168273ffffffffffffffffffffffffffffffffffffffff167f8c5be1e5ebec7d5bd14f71427d1e84f3dd0314c0f7b2291e5b200ac8c7c3b92560405160405180910390a4505050565b600460009054906101000a900473ffffffffffffffffffffffffffffffffffffffff1681565b6104e43382610acd565b6104ed57600080fd5b6104f8838383610b62565b505050565b600460009054906101000a900473ffffffffffffffffffffffffffffffffffffffff1673ffffffffffffffffffffffffffffffffffffffff163373ffffffffffffffffffffffffffffffffffffffff161461055757600080fd5b600073ffffffffffffffffffffffffffffffffffffffff168273ffffffffffffffffffffffffffffffffffffffff16141561059157600080fd5b61059a81610a5c565b156105a457600080fd5b8160008083815260200190815260200160002060006101000a81548173ffffffffffffffffffffffffffffffffffffffff021916908373ffffffffffffffffffffffffffffffffffffffff1602179055506106486001600260008573ffffffffffffffffffffffffffffffffffffffff1673ffffffffffffffffffffffffffffffffffffffff16815260200190815260200160002054610dc290919063ffffffff16565b600260008473ffffffffffffffffffffffffffffffffffffffff1673ffffffffffffffffffffffffffffffffffffffff16815260200190815260200160002081905550808273ffffffffffffffffffffffffffffffffffffffff16600073ffffffffffffffffffffffffffffffffffffffff167fddf252ad1be2c89b69c2b068fc378daa952ba7f163c4a11628f55a4df523b3ef60405160405180910390a45050565b6106f53382610de5565b50565b60008060008084815260200190815260200160002060009054906101000a900473ffffffffffffffffffffffffffffffffffffffff169050600073ffffffffffffffffffffffffffffffffffffffff168173ffffffffffffffffffffffffffffffffffffffff16141561076a57600080fd5b80915050919050565b60008073ffffffffffffffffffffffffffffffffffffffff168273ffffffffffffffffffffffffffffffffffffffff1614156107ae57600080fd5b600260008373ffffffffffffffffffffffffffffffffffffffff1673ffffffffffffffffffffffffffffffffffffffff168152602001908152602001600020549050919050565b60068054610802906113fd565b80601f016020809104026020016040519081016040528092919081815260200182805461082e906113fd565b801561087b5780601f106108505761010080835404028352916020019161087b565b820191906000526020600020905b81548152906001019060200180831161085e57829003601f168201915b505050505081565b3373ffffffffffffffffffffffffffffffffffffffff168273ffffffffffffffffffffffffffffffffffffffff1614156108bc57600080fd5b80600360003373ffffffffffffffffffffffffffffffffffffffff1673ffffffffffffffffffffffffffffffffffffffff16815260200190815260200160002060008473ffffffffffffffffffffffffffffffffffffffff1673ffffffffffffffffffffffffffffffffffffffff16815260200190815260200160002060006101000a81548160ff0219169083151502179055508173ffffffffffffffffffffffffffffffffffffffff163373ffffffffffffffffffffffffffffffffffffffff167f17307eab39ab6107e8899845ad3d59bd9653f200f220920489ca2b5937696c31836040516109ad9190611284565b60405180910390a35050565b6109c4338383610b62565b5050565b6000600360008473ffffffffffffffffffffffffffffffffffffffff1673ffffffffffffffffffffffffffffffffffffffff16815260200190815260200160002060008373ffffffffffffffffffffffffffffffffffffffff1673ffffffffffffffffffffffffffffffffffffffff16815260200190815260200160002060009054906101000a900460ff16905092915050565b60008060008084815260200190815260200160002060009054906101000a900473ffffffffffffffffffffffffffffffffffffffff169050600073ffffffffffffffffffffffffffffffffffffffff168173ffffffffffffffffffffffffffffffffffffffff161415915050919050565b600080610ad9836106f8565b90508073ffffffffffffffffffffffffffffffffffffffff168473ffffffffffffffffffffffffffffffffffffffff161480610b4857508373ffffffffffffffffffffffffffffffffffffffff16610b3084610324565b73ffffffffffffffffffffffffffffffffffffffff16145b80610b595750610b5881856109c8565b5b91505092915050565b8273ffffffffffffffffffffffffffffffffffffffff16610b82826106f8565b73ffffffffffffffffffffffffffffffffffffffff1614610ba257600080fd5b600073ffffffffffffffffffffffffffffffffffffffff168273ffffffffffffffffffffffffffffffffffffffff161415610bdc57600080fd5b610be581610f76565b610c386001600260008673ffffffffffffffffffffffffffffffffffffffff1673ffffffffffffffffffffffffffffffffffffffff1681526020019081526020016000205461103490919063ffffffff16565b600260008573ffffffffffffffffffffffffffffffffffffffff1673ffffffffffffffffffffffffffffffffffffffff16815260200190815260200160002081905550610cce6001600260008573ffffffffffffffffffffffffffffffffffffffff1673ffffffffffffffffffffffffffffffffffffffff16815260200190815260200160002054610dc290919063ffffffff16565b600260008473ffffffffffffffffffffffffffffffffffffffff1673ffffffffffffffffffffffffffffffffffffffff168152602001908152602001600020819055508160008083815260200190815260200160002060006101000a81548173ffffffffffffffffffffffffffffffffffffffff021916908373ffffffffffffffffffffffffffffffffffffffff160217905550808273ffffffffffffffffffffffffffffffffffffffff168473ffffffffffffffffffffffffffffffffffffffff167fddf252ad1be2c89b69c2b068fc378daa952ba7f163c4a11628f55a4df523b3ef60405160405180910390a4505050565b60008183610dd091906112f8565b905082811015610ddf57600080fd5b92915050565b8173ffffffffffffffffffffffffffffffffffffffff16610e05826106f8565b73ffffffffffffffffffffffffffffffffffffffff1614610e2557600080fd5b610e2e81610f76565b610e816001600260008573ffffffffffffffffffffffffffffffffffffffff1673ffffffffffffffffffffffffffffffffffffffff1681526020019081526020016000205461103490919063ffffffff16565b600260008473ffffffffffffffffffffffffffffffffffffffff1673ffffffffffffffffffffffffffffffffffffffff16815260200190815260200160002081905550600080600083815260200190815260200160002060006101000a81548173ffffffffffffffffffffffffffffffffffffffff021916908373ffffffffffffffffffffffffffffffffffffffff16021790555080600073ffffffffffffffffffffffffffffffffffffffff168373ffffffffffffffffffffffffffffffffffffffff167fddf252ad1be2c89b69c2b068fc378daa952ba7f163c4a11628f55a4df523b3ef60405160405180910390a45050565b600073ffffffffffffffffffffffffffffffffffffffff166001600083815260200190815260200160002060009054906101000a900473ffffffffffffffffffffffffffffffffffffffff1673ffffffffffffffffffffffffffffffffffffffff16146110315760006001600083815260200190815260200160002060006101000a81548173ffffffffffffffffffffffffffffffffffffffff021916908373ffffffffffffffffffffffffffffffffffffffff1602179055505b50565b60008282111561104357600080fd5b818361104f919061134e565b905092915050565b600081359050611066816114a3565b92915050565b60008135905061107b816114ba565b92915050565b600081359050611090816114d1565b92915050565b6000602082840312156110ac576110ab61148d565b5b60006110ba84828501611057565b91505092915050565b600080604083850312156110da576110d961148d565b5b60006110e885828601611057565b92505060206110f985828601611057565b9150509250929050565b60008060006060848603121561111c5761111b61148d565b5b600061112a86828701611057565b935050602061113b86828701611057565b925050604061114c86828701611081565b9150509250925092565b6000806040838503121561116d5761116c61148d565b5b600061117b85828601611057565b925050602061118c8582860161106c565b9150509250929050565b600080604083850312156111ad576111ac61148d565b5b60006111bb85828601611057565b92505060206111cc85828601611081565b9150509250929050565b6000602082840312156111ec576111eb61148d565b5b60006111fa84828501611081565b91505092915050565b61120c81611382565b82525050565b61121b81611394565b82525050565b600061122c826112dc565b61123681856112e7565b93506112468185602086016113ca565b61124f81611492565b840191505092915050565b611263816113c0565b82525050565b600060208201905061127e6000830184611203565b92915050565b60006020820190506112996000830184611212565b92915050565b600060208201905081810360008301526112b98184611221565b905092915050565b60006020820190506112d6600083018461125a565b92915050565b600081519050919050565b600082825260208201905092915050565b6000611303826113c0565b915061130e836113c0565b9250827fffffffffffffffffffffffffffffffffffffffffffffffffffffffffffffffff038211156113435761134261142f565b5b828201905092915050565b6000611359826113c0565b9150611364836113c0565b9250828210156113775761137661142f565b5b828203905092915050565b600061138d826113a0565b9050919050565b60008115159050919050565b600073ffffffffffffffffffffffffffffffffffffffff82169050919050565b6000819050919050565b60005b838110156113e85780820151818401526020810190506113cd565b838111156113f7576000848401525b50505050565b6000600282049050600182168061141557607f821691505b602082108114156114295761142861145e565b5b50919050565b7f4e487b7100000000000000000000000000000000000000000000000000000000600052601160045260246000fd5b7f4e487b7100000000000000000000000000000000000000000000000000000000600052602260045260246000fd5b600080fd5b6000601f19601f8301169050919050565b6114ac81611382565b81146114b757600080fd5b50565b6114c381611394565b81146114ce57600080fd5b50565b6114da816113c0565b81146114e557600080fd5b5056fea2646970667358221220ff9785899b134b48f02e46e682349d643e3c8ac16940d743ed8791a6d220563c64736f6c63430008060033",
  "linkReferences": {},
  "deployedLinkReferences": {}
}